:020000040000FA
:0400000007EF00F016
:0A000800268299ED0AF00AEF0BF0D2
:1006000000436170756363696E6F2070726F6E7402
:100610006F210020436166652045787072657373B1
:100620006F0020202073756120626562696461003B
:10063000436166652070726F6E746F210020202008
:100640002020646520616775610020202020204102
:10065000204167756100426169786F206E69766537
:100660006C002020436170756363696E6F00507287
:1006700065706172616E646F0043616665204375E9
:1006800072746F004171756563656E646F004573C8
:07069000636F6C686100005C
:1006980022042310D8A453EF03F055EF03F029EFF9
:1006A80004F0000E1B6E000E1A6EF2EC0AF0030E38
:1006B80029EC0BF0840E156E060E166EBAEC0AF0D5
:1006C800280E29EC0BF04A0E156E060E166EBAECC3
:1006D8000AF0030E196E8A0E186E560EE82EFED713
:1006E800182EFCD7192EFAD7818E030E196E8A0E92
:1006F800186E560EE82EFED7182EFCD7192EFAD7EC
:10070800819E000E156E050E146E6FEC09F01A4AE4
:100718001B2A1BBE99EF03F01B5009E1050E1A5C5A
:10072800D8A099EF03F09BEF03F059EF03F0000E08
:100738001D6E000E1C6EF2EC0AF0030E29EC0BF095
:100748006E0E156E060E166EBAEC0AF0280E29EC1F
:100758000BF0620E156E060E166EBAEC0AF0030E5A
:10076800196E8A0E186E560EE82EFED7182EFCD774
:10077800192EFAD7818C030E196E8A0E186E560E32
:10078800E82EFED7182EFCD7192EFAD7819C000E1A
:10079800156E0A0E146E6FEC09F01C4A1D2A1DBE58
:1007A800DFEF03F01D5009E1050E1C5CD8A0DFEF58
:1007B80003F0E1EF03F09FEF03F0000E1F6E000E51
:1007C8001E6EF2EC0AF0030E29EC0BF0010E156E0A
:1007D800060E166EBAEC0AF0280E29EC0BF0350E50
:1007E800156E060E166EBAEC0AF0030E196E8A0E16
:1007F800186E560EE82EFED7182EFCD7192EFAD7EB
:100808008180030E196E8A0E186E560EE82EFED7DA
:10081800182EFCD7192EFAD78190000E156E140EDB
:10082800146E6FEC09F01E4A1F2A1FBE25EF04F054
:100838001F5009E1040E1E5CD8A025EF04F027EF35
:1008480004F0E5EF03F02BEF04F0D3EC08F012000E
:1008580022042310D8A433EF04F035EF04F009EF95
:1008680005F0000E086E000E076EFEEC0AF0030E8F
:1008780030EC0BF0840E026E060E036ED6EC0AF016
:10088800280E30EC0BF04A0E026E060E036ED6EC04
:100898000AF0030E066E8A0E056E560EE82EFED777
:1008A800052EFCD7062EFAD7818E030E066E8A0E09
:1008B800056E560EE82EFED7052EFCD7062EFAD763
:1008C800819E000E026E050E016EAFEC09F0074A1C
:1008D800082A08BE79EF04F0085009E1050E075C04
:1008E800D8A079EF04F07BEF04F039EF04F0000EA4
:1008F8000A6E000E096EFEEC0AF0030E30EC0BF0E7
:100908006E0E026E060E036ED6EC0AF0280E30EC60
:100918000BF0620E026E060E036ED6EC0AF0030EA2
:10092800066E8A0E056E560EE82EFED7052EFCD7EB
:10093800062EFAD7818C030E066E8A0E056E560EA9
:10094800E82EFED7052EFCD7062EFAD7819C000E7E
:10095800026E0A0E016EAFEC09F0094A0A2A0ABEB5
:10096800BFEF04F00A5009E1050E095CD8A0BFEFFB
:1009780004F0C1EF04F07FEF04F0000E0C6E000EDF
:100988000B6EFEEC0AF0030E30EC0BF0010E026E5B
:10099800060E036ED6EC0AF0280E30EC0BF0350E7E
:1009A800026E060E036ED6EC0AF0030E066E8A0E71
:1009B800056E560EE82EFED7052EFCD7062EFAD762
:1009C8008180030E066E8A0E056E560EE82EFED73F
:1009D800052EFCD7062EFAD78190000E026E140E53
:1009E800016EAFEC09F00B4A0C2A0CBE05EF05F0BE
:1009F8000C5009E1040E0B5CD8A005EF05F007EFD9
:100A080005F0C5EF04F00BEF05F021EC09F012003A
:100A180022042310D8A413EF05F015EF05F0E0EF3A
:100A280005F0000E1B6E000E1A6EF2EC0AF0030EB3
:100A380029EC0BF0840E156E060E166EBAEC0AF051
:100A4800280E29EC0BF04A0E156E060E166EBAEC3F
:100A58000AF0030E196E8A0E186E560EE82EFED78F
:100A6800182EFCD7192EFAD7818E030E196E8A0E0E
:100A7800186E560EE82EFED7182EFCD7192EFAD768
:100A8800819E000E156E050E146E6FEC09F01A4A61
:100A98001B2A1BBE59EF05F01B5009E1050E1A5C15
:100AA800D8A059EF05F05BEF05F019EF05F0000E3F
:100AB8001D6E000E1C6EF2EC0AF0030E29EC0BF012
:100AC8006E0E156E060E166EBAEC0AF0280E29EC9C
:100AD8000BF0130E156E060E166EBAEC0AF0030E26
:100AE800196E8A0E186E560EE82EFED7182EFCD7F1
:100AF800192EFAD7818C030E196E8A0E186E560EAF
:100B0800E82EFED7182EFCD7192EFAD7819C000E96
:100B1800156E0A0E146E6FEC09F01C4A1D2A1DBED4
:100B28009FEF05F01D5009E1050E1C5CD8A09FEF52
:100B380005F0A1EF05F05FEF05F0000E1F6E000E47
:100B48001E6EF2EC0AF0030E29EC0BF0300E156E57
:100B5800060E166EBAEC0AF0030E196E8A0E186E9F
:100B6800560EE82EFED7182EFCD7192EFAD78180FC
:100B7800030E196E8A0E186E560EE82EFED7182E22
:100B8800FCD7192EFAD78190000E156E140E146E2C
:100B98006FEC09F01E4A1F2A1FBEDCEF05F01F503C
:100BA80009E1040E1E5CD8A0DCEF05F0DEEF05F0CD
:100BB800A5EF05F0E2EF05F0D3EC08F012002204EF
:100BC8002310D8A4EAEF05F0ECEF05F0B7EF06F034
:100BD800000E1B6E000E1A6EF2EC0AF0030E29ECE2
:100BE8000BF0840E156E060E166EBAEC0AF0280E7F
:100BF80029EC0BF04A0E156E060E166EBAEC0AF0CA
:100C0800030E196E8A0E186E560EE82EFED7182E91
:100C1800FCD7192EFAD7818E030E196E8A0E186E1C
:100C2800560EE82EFED7182EFCD7192EFAD7819E1D
:100C3800000E156E050E146E6FEC09F01A4A1B2A89
:100C48001BBE30EF06F01B5009E1050E1A5CD8A058
:100C580030EF06F032EF06F0F0EF05F0000E1D6EF3
:100C6800000E1C6EF2EC0AF0030E29EC0BF06E0E6F
:100C7800156E060E166EBAEC0AF0280E29EC0BF06B
:100C8800790E156E060E166EBAEC0AF0030E196E82
:100C98008A0E186E560EE82EFED7182EFCD7192E7F
:100CA800FAD7818C030E196E8A0E186E560EE82E2E
:100CB800FED7182EFCD7192EFAD7819C000E156E78
:100CC8000A0E146E6FEC09F01C4A1D2A1DBE76EF41
:100CD80006F01D5009E1050E1C5CD8A076EF06F061
:100CE80078EF06F036EF06F0000E1F6E000E1E6E4F
:100CF800F2EC0AF0030E29EC0BF0300E156E060E1E
:100D0800166EBAEC0AF0030E196E8A0E186E560E9D
:100D1800E82EFED7182EFCD7192EFAD78180030E9D
:100D2800196E8A0E186E560EE82EFED7182EFCD7AE
:100D3800192EFAD78190000E156E140E146E6FECF2
:100D480009F01E4A1F2A1FBEB3EF06F01F5009E123
:100D5800040E1E5CD8A0B3EF06F0B5EF06F07CEFEA
:100D680006F0B9EF06F0D3EC08F0120022042310C5
:100D7800D8A4C1EF06F0C3EF06F08EEF07F0000E1F
:100D8800086E000E076EFEEC0AF0030E30EC0BF056
:100D9800840E026E060E036ED6EC0AF0280E30ECB6
:100DA8000BF04A0E026E060E036ED6EC0AF0030E26
:100DB800066E8A0E056E560EE82EFED7052EFCD757
:100DC800062EFAD7818E030E066E8A0E056E560E13
:100DD800E82EFED7052EFCD7062EFAD7819E000EE8
:100DE800026E050E016EAFEC09F0074A082A08BE2C
:100DF80007EF07F0085009E1050E075CD8A007EFD8
:100E080007F009EF07F0C7EF06F0000E0A6E000EB4
:100E1800096EFEEC0AF0030E30EC0BF06E0E026E5B
:100E2800060E036ED6EC0AF0280E30EC0BF0130E0B
:100E3800026E060E036ED6EC0AF0030E066E8A0EDC
:100E4800056E560EE82EFED7052EFCD7062EFAD7CD
:100E5800818C030E066E8A0E056E560EE82EFED79E
:100E6800052EFCD7062EFAD7819C000E026E0A0EBC
:100E7800016EAFEC09F0094A0A2A0ABE4DEF07F0E5
:100E88000A5009E1050E095CD8A04DEF07F04FEFB5
:100E980007F00DEF07F0000E0C6E000E0B6EFEEC67
:100EA8000AF0030E30EC0BF0300E026E060E036EE5
:100EB800D6EC0AF0030E066E8A0E056E560EE82E64
:100EC800FED7052EFCD7062EFAD78180030E066EB4
:100ED8008A0E056E560EE82EFED7052EFCD7062E76
:100EE800FAD78190000E026E140E016EAFEC09F075
:100EF8000B4A0C2A0CBE8AEF07F00C5009E1040ECD
:100F08000B5CD8A08AEF07F08CEF07F053EF07F0DF
:100F180090EF07F021EC09F0120022042310D8A466
:100F280098EF07F09AEF07F065EF08F0000E086EEB
:100F3800000E076EFEEC0AF0030E30EC0BF0840E88
:100F4800026E060E036ED6EC0AF0280E30EC0BF09B
:100F58004A0E026E060E036ED6EC0AF0030E066EFB
:100F68008A0E056E560EE82EFED7052EFCD7062EE5
:100F7800FAD7818E030E066E8A0E056E560EE82E7F
:100F8800FED7052EFCD7062EFAD7819E000E026EDC
:100F9800050E016EAFEC09F0074A082A08BEDEEF1D
:100FA80007F0085009E1050E075CD8A0DEEF07F04E
:100FB800E0EF07F09EEF07F0000E0A6E000E096ED4
:100FC800FEEC0AF0030E30EC0BF06E0E026E060E0D
:100FD800036ED6EC0AF0280E30EC0BF0790E026E98
:100FE800060E036ED6EC0AF0030E066E8A0E056E28
:100FF800560EE82EFED7052EFCD7062EFAD7818C82
:10100800030E066E8A0E056E560EE82EFED7052EC6
:10101800FCD7062EFAD7819C000E026E0A0E016ECE
:10102800AFEC09F0094A0A2A0ABE24EF08F00A5070
:1010380009E1050E095CD8A024EF08F026EF08F0B6
:10104800E4EF07F0000E0C6E000E0B6EFEEC0AF0DB
:10105800030E30EC0BF0300E026E060E036ED6EC6B
:101068000AF0030E066E8A0E056E560EE82EFED79F
:10107800052EFCD7062EFAD78180030E066E8A0E3F
:10108800056E560EE82EFED7052EFCD7062EFAD78B
:101098008190000E026E140E016EAFEC09F00B4A3F
:1010A8000C2A0CBE61EF08F00C5009E1040E0B5C31
:1010B800D8A061EF08F063EF08F02AEF08F067EFB7
:1010C80008F021EC09F0120022042310D8A46FEFD5
:1010D80008F071EF08F0D0EF08F082B276EF08F070
:1010E80078EF08F090EF08F0070E206E7D0EE82EDE
:1010F800FED7202EFCD700F082B285EF08F087EFEC
:1011080008F090EF08F082A28CEF08F08EEF08F05C
:1011180087EF08F0E3EC05F082B495EF08F097EF5D
:1011280008F0AFEF08F0070E206E7D0EE82EFED710
:10113800202EFCD700F082B4A4EF08F0A6EF08F048
:10114800AFEF08F082A4ABEF08F0ADEF08F0A6EF20
:1011580008F00CEC05F082B6B4EF08F0B6EF08F032
:10116800D2EF08F0070E206E7D0EE82EFED7202E57
:10117800FCD700F082B6C3EF08F0C5EF08F0D2EF55
:1011880008F082A6CAEF08F0CCEF08F0C5EF08F027
:101198004CEC03F0D2EF08F0D3EC08F0120082B068
:1011A800D8EF08F0DAEF08F01AEF09F0410E176EE1
:1011B800EE0EE82EFED7172EFCD700D082B0E7EF50
:1011C80008F0E9EF08F020EF09F00DEF09F0F2EC74
:1011D8000AF0030E29EC0BF0560E156E060E166E6D
:1011E800BAEC0AF0280E29EC0BF03D0E156E060E2F
:1011F800166EBAEC0AF0410E176EEE0EE82EFED708
:10120800172EFCD700D0000E156E0F0E146E6FEC63
:1012180009F082A012EF09F014EF09F0EBEF08F0E3
:10122800000E236E000E226E20EF09F0000E236ED2
:10123800010E226EF2EC0AF0120082B026EF09F0DD
:1012480028EF09F068EF09F0410E046EEE0EE82E63
:10125800FED7042EFCD700D082B035EF09F037EF67
:1012680009F06EEF09F05BEF09F0FEEC0AF0030EEF
:1012780030EC0BF0560E026E060E036ED6EC0AF03A
:10128800280E30EC0BF03D0E026E060E036ED6EC07
:101298000AF0410E046EEE0EE82EFED7042EFCD79F
:1012A80000D0000E026E0F0E016EAFEC09F082A0A6
:1012B80060EF09F062EF09F039EF09F0000E236ED4
:1012C800000E226E6EEF09F0000E236E010E226EE4
:1012D800FEEC0AF012009EA874EF09F076EF09F010
:1012E8006FEF09F00A0E14181510D8A47EEF09F054
:1012F80080EF09F084EF09F00A0EAD6EAEEF09F049
:10130800140E14181510D8A48CEF09F08EEF09F0FC
:1013180092EF09F0140EAD6EAEEF09F0050E141839
:101328001510D8A49AEF09F09CEF09F0A0EF09F086
:10133800050EAD6EAEEF09F00F0E14181510D8A4F7
:10134800A8EF09F0AAEF09F0AEEF09F00F0EAD6EA5
:10135800AEEF09F012009EA8B4EF09F0B6EF09F05D
:10136800AFEF09F00A0E01180210D8A4BEEF09F079
:10137800C0EF09F0C4EF09F00A0EAD6EEEEF09F008
:10138800140E01180210D8A4CCEF09F0CEEF09F022
:10139800D2EF09F0140EAD6EEEEF09F0050E01184C
:1013A8000210D8A4DAEF09F0DCEF09F0E0EF09F059
:1013B800050EAD6EEEEF09F00F0E01180210D8A45D
:1013C800E8EF09F0EAEF09F0EEEF09F00F0EAD6E65
:1013D800EEEF09F012008D908D92140E166E7A0EB3
:1013E800E82EFED7162EFCD7030E836E8D828D92C3
:1013F800070E166E7D0EE82EFED7162EFCD700F0CF
:101408008D828D92420EE82EFED700D08D828D926D
:10141800420EE82EFED700D0020E836E8D828D928A
:10142800380E15EC0BF0060E15EC0BF00C0E15EC47
:101438000BF0F2EC0AF0120078EC0AF0EFEC09F08D
:10144800000E816E000E836E000E846E898AD3ECC6
:1014580008F0F2EC0AF0030E29EC0BF08E0E156E74
:10146800060E166EBAEC0AF0280E29EC0BF0220EC6
:10147800156E060E166EBAEC0AF0410E216EEE0ECF
:10148800E82EFED7212EFCD700D068EC08F02BEF11
:101498000AF007EF00F00F6E5EEF0AF091EC07F02C
:1014A80077EF0AF0BAEC06F077EF0AF02CEC04F0CC
:1014B80077EF0AF00F500D6E0E6A0E50000AD8B47E
:1014C80068EF0AF077EF0AF00D50610AD8B452EFCE
:1014D8000AF0030AD8B456EF0AF0010AD8B45AEF52
:1014E8000AF077EF0AF01200DF0E926E000E936E8C
:1014F8009468000E956E0C0E966E630ED36ED08EA9
:10150800C00EF26EC30ED56E010EC26E0E0EC16E07
:10151800940EC06E240EAC6E900EAB6E000EB86EBC
:10152800190EAF6E9D8A9F8A12000600F6CF10F042
:10153800F7CF11F0F8CF12F0F5CF13F09EAAA7EF6E
:101548000AF0A9EF0AF0B0EF0AF09E9AAECF24F0A5
:10155800256A24504FEC0AF013C0F5FF12C0F8FFBB
:1015680011C0F7FF10C0F6FF269211008D80C7EF5B
:101578000AF015C0F6FF16C0F7FF0800F55015EC85
:101588000BF0154A162A15C0F6FF16C0F7FF08001B
:10159800F5500009D8A4D3EF0AF0D5EF0AF0BDEF53
:1015A8000AF012008D80E3EF0AF002C0F6FF03C0D4
:1015B800F7FF0800F5501FEC0BF0024A032A02C09F
:1015C800F6FF03C0F7FF0800F5500009D8A4EFEFB5
:1015D8000AF0F1EF0AF0D9EF0AF012008D90010E2F
:1015E80015EC0BF0030E156E980EE82EFED7152E8F
:1015F800FCD712008D90010E1FEC0BF0030E026E4B
:10160800980EE82EFED7022EFCD71200256A246A0F
:10161800236A226A26902692000EF86E000120EFB7
:101628000AF0146EC80E00D0E82EFDD714C083FF50
:101638008D828D921200016EC80E00D0E82EFDD763
:1016480001C083FF8D828D921200156E8D9015500A
:10165800800F15EC0BF01200026E8D900250800F77
:061668001FEC0BF0120064
:020000040020DA
:08000000FFFFFFFFFFFFFFFF00
:020000040030CA
:0E000000FF081F1EFF8181FF0FC00FE00F40A1
:00000001FF
